:1000000012C017C016C015C014C013C012C011C052
:1000100010C00FC00EC00DC00CC00BC00AC009C07C
:1000200008C007C006C011241FBECFEDCDBF57D0FA
:1000300074C0E6CFDF93CF9300D0CDB7DEB70FC04B
:100040001A82198206C029813A812F5F3F4F3A8375
:10005000298329813A812A3F3105A9F781508823D4
:1000600079F7CE5FCDBFCF91DF910895929892B38B
:10007000282F30E021703070220F331F220F331FE2
:10008000922B92BB939892B3282F269530E0217043
:10009000307053E0220F331F5A95E1F7922B92BB39
:1000A000949892B3282F2695269530E021703070D1
:1000B00044E0220F331F4A95E1F7922B92BB9698AA
:1000C00022B386958695869590E08170907036E093
:1000D000880F991F3A95E1F7282B22BB08958FEFDF
:1000E00081BB12BA10BE8FE086BF83E08CBF8D9AB1
:1000F00080B7836080BF83B7886083BF80B780622A
:1001000080BF83B7816083BF80E0B0DF80ED92DF86
:0E0110008FE0ACDF80ED8EDFF7CFF894FFCFED
:00000001FF
