:1000000012C017C016C015C014C013C012C011C052
:1000100010C00FC00EC00DC00CC00BC00AC009C07C
:1000200008C007C006C011241FBECFEDCDBF45D00C
:1000300063C0E6CFDF93CF9300D0CDB7DEB70FC05C
:100040001A82198206C029813A812F5F3F4F3A8375
:10005000298329813A812A3F3105A9F781508823D4
:1000600079F7CE5FCDBFCF91DF91089512BA42B339
:1000700090E0817090709C01220F331F220F331F7C
:10008000422B42BB42B39C0163E0220F331F6A95AF
:10009000E1F7422B42BB42B39C0154E0220F331FD5
:1000A0005A95E1F7422B42BB22B336E0880F991FE5
:1000B0003A95E1F7282B22BB08951F938FEF81BB60
:1000C00012BA10BE8FE086BF83E08CBF8D9A80B7D6
:1000D000836080BF83B7886083BF80B7806280BF42
:1000E00083B7816083BF10E0812FC0DF80EDA2DF86
:0C00F0001F5F1730C0F7F8CFF894FFCF67
:00000001FF
